S01D0000656C656374726963207761746572206865617465722E73726563E0
S11300000C9434000C9486020C9451000C9451000E
S11300100C9451000C9451000C9451000C94510018
S11300200C9451000C9451000C9451000C94510008
S11300300C9451000C9451000C9451000C945100F8
S11300400C9451000C9451000C9451000C945100E8
S11300500C9451001E0132012001220124012601C9
S113006028012A012C012E0111241FBECFE5D8E05E
S1130070DEBFCDBF10E0A0E6B0E0EAEEF5E002C0DE
S113008005900D92A236B107D9F720E0A2E6B0E0C0
S113009001C01D92A836B207E1F70E94AA020C948F
S11300A0F3020C94000087B1806487B986B180683C
S11300B086B986B1846086B9089597B1907E892BFC
S11300C087B986B1806486B9349BFECF83E08A9574
S11300D0F1F7000024B185B190E0982F8827820FB2
S11300E0911D089511B88AE280B908950E947200A2
S11300F0089594EA96BF06B607FEFDCF91B1987FA6
S1130100983071F483B984E886BF06B607FEFDCF44
S113011081B1887F883131F0803231F482E00895F2
S113012080E0089581E0089583E0089594EA96BFFD
S113013006B607FEFDCF91B1987F903171F483B973
S113014084E886BF06B607FEFDCF81B1887F803480
S113015031F0883431F482E0089580E0089581E03C
S1130160089583E0089583B984E886BF06B607FE40
S1130170FDCF81B1887F883221F0803321F481E082
S1130180089580E0089582E0089584EC86BF06B661
S113019007FEFDCF83B1089584E986BF06B604FC4B
S11301A0FDCF0895CF93DF93D62FC42F880F8056A9
S11301B00E9479008D2F0E94B3008C2F0E94B300FF
S11301C083EC99E00197F1F700C000000E94CC0095
S11301D0DF91CF910895CF93DF93D62F982F990F66
S11301E080EA890FC1EAC90FE3ECF9E03197F1F72E
S11301F000C000000E9479008D2F0E94B3008C2F54
S11302000E9496000E94C500C82F0E94CC008C2F2B
S1130210DF91CF9108958DE984BB8FE78ABB8FEF7F
S113022087BB81B3816081BB089590E08A309105DA
S1130230B8F4FC01E65DFF4F0C94D70280E4089506
S113024084E2089580E3089589E1089582E10895A0
S113025082E0089588E7089580E0089580E1089594
S11302608FE7089589E70895CF93CDEC8C9FC12D36
S11302701124C695C695C6952C2F220F922F990F3F
S1130280990F920F891B0E9415018BBB8C2F0E9422
S1130290150188BB87EA91E60197F1F700C00000D9
S11302A0CF9108959FE79BBB98BBE7EAF1E63197AE
S11302B0F1F700C000000E9434010895CF93DF934A
S11302C0EC01809162009091630001969093630029
S11302D08093620050C0C931D10521F410926300AB
S11302E010926200219680916000909161000E94BA
S11302F052019D9920C083EC99E00197F1F700C069
S11303000000809160000E9434014091600050918F
S113031061004B3451056CF44B5F5F4F50936100A7
S11303204093600062E181E00E94D200C0E0D0E02E
S113033002C0C0E0D0E09E991EC083EC99E0019712
S1130340F1F700C00000809160000E9434018091A8
S1130350600090916100C0E0D0E0843291055CF0CF
S1130360AC0145505109509361004093600062E133
S113037081E00E94D200809162009091630018167F
S113038019060CF4A8CFDF91CF91089585B38B7F24
S113039085BB85B38F7785BB85B38F7E85BB85B3DE
S11303A0877F85BB87EA91E60197F1F700C00000DB
S11303B08FEF8BBBE3EDF0E33197F1F700C0000062
S11303C088BB1092630010926200089580916400CB
S11303D0811104C081E08093640008951092640048
S11303E00895CF92DF92EF92FF9280916400813062
S11303F009F077C062E10E94EB008093650090E011
S1130400909361008093600087E090E00E945D001B
S113041024EF31E0DC010E94DD022FEF33E040E005
S113042050E00E94B502C22ED32EE42EF52E92B3D4
S1130430916092BB40916600509167004F5F5F4F9F
S113044050936700409366004A30510509F040C05C
S1130450822F0E9434018091600090916100059781
S1130460092E000CAA0BBB0BC816D906EA06FB061C
S113047068F485B3846085BB85B3805885BB87EAFF
S113048091E60197F1F700C0000003C085B38B7FAC
S113049085BB80916000909161000596092E000C47
S11304A0AA0BBB0B8C159D05AE05BF0538F485B3AF
S11304B0886085BB85B3806885BB06C085B38F77AC
S11304C085BB85B3877F85BB109267001092660059
S11304D09D9B02C09E9907C080E090E00E945E014F
S11304E002C00E94C601FF90EF90DF90CF90089564
S11304F081B38B7F81BB85B7826085BF85B78160FF
S113050085BF8BB780648BBF789408951F920F9238
S11305100FB60F9211242F933F934F935F936F93D2
S11305207F938F939F93AF93BF93EF93FF930E9417
S1130530E601FF91EF91BF91AF919F918F917F91D0
S11305406F915F914F913F912F910F900FBE0F903C
S11305501F9018950E9478020E9453000E94760012
S11305600E940B010E94F101FDCFA1E21A2EAA1BE9
S1130570BB1BFD010DC0AA1FBB1FEE1FFF1FA2174F
S1130580B307E407F50720F0A21BB30BE40BF50B4C
S1130590661F771F881F991F1A9469F760957095D5
S11305A0809590959B01AC01BD01CF010895EE0F9C
S11305B0FF1F0590F491E02D09940E94E402B7FF17
S11305C00895821B930B0895A29FB001B39FC001AD
S11305D0A39F700D811D1124911DB29F700D811D6B
S10D05E01124911D0895F894FFCF33
S10505EA3C00CF
S90303E217
